{
  "contractName": "NFTs",
  "abi": [
    {
      "inputs": [
        {
          "internalType": "uint256",
          "name": "",
          "type": "uint256"
        }
      ],
      "name": "nfts",
      "outputs": [
        {
          "internalType": "string",
          "name": "image",
          "type": "string"
        },
        {
          "internalType": "string",
          "name": "owner",
          "type": "string"
        },
        {
          "internalType": "uint256",
          "name": "floorValue",
          "type": "uint256"
        }
      ],
      "stateMutability": "view",
      "type": "function",
      "constant": true
    },
    {
      "inputs": [
        {
          "internalType": "string",
          "name": "_image",
          "type": "string"
        },
        {
          "internalType": "string",
          "name": "_owner",
          "type": "string"
        },
        {
          "internalType": "uint256",
          "name": "_floorValue",
          "type": "uint256"
        }
      ],
      "name": "storeNFT",
      "outputs": [],
      "stateMutability": "nonpayable",
      "type": "function"
    },
    {
      "inputs": [
        {
          "internalType": "uint256",
          "name": "_index",
          "type": "uint256"
        }
      ],
      "name": "retrieveNFT",
      "outputs": [
        {
          "internalType": "string",
          "name": "",
          "type": "string"
        },
        {
          "internalType": "string",
          "name": "",
          "type": "string"
        },
        {
          "internalType": "uint256",
          "name": "",
          "type": "uint256"
        }
      ],
      "stateMutability": "view",
      "type": "function",
      "constant": true
    }
  ],
  "bytecode": "0x608060405234801561001057600080fd5b50610a77806100206000396000f3fe608060405234801561001057600080fd5b50600436106100415760003560e01c80630a1d7c5f14610046578063225f3b9214610078578063265aa62114610094575b600080fd5b610060600480360381019061005b9190610463565b6100c6565b60405161006f9392919061052f565b60405180910390f35b610092600480360381019061008d91906106a9565b610246565b005b6100ae60048036038101906100a99190610463565b6102cf565b6040516100bd9392919061052f565b60405180910390f35b606080600080600085815481106100e0576100df610734565b5b906000526020600020906003020160405180606001604052908160008201805461010990610792565b80601f016020809104026020016040519081016040528092919081815260200182805461013590610792565b80156101825780601f1061015757610100808354040283529160200191610182565b820191906000526020600020905b81548152906001019060200180831161016557829003601f168201915b5050505050815260200160018201805461019b90610792565b80601f01602080910402602001604051908101604052809291908181526020018280546101c790610792565b80156102145780601f106101e957610100808354040283529160200191610214565b820191906000526020600020905b8154815290600101906020018083116101f757829003601f168201915b505050505081526020016002820154815250509050806000015181602001518260400151935093509350509193909250565b60006040518060600160405280858152602001848152602001838152509050600081908060018154018082558091505060019003906000526020600020906003020160009091909190915060008201518160000190816102a6919061096f565b5060208201518160010190816102bc919061096f565b5060408201518160020155505050505050565b600081815481106102df57600080fd5b906000526020600020906003020160009150905080600001805461030290610792565b80601f016020809104026020016040519081016040528092919081815260200182805461032e90610792565b801561037b5780601f106103505761010080835404028352916020019161037b565b820191906000526020600020905b81548152906001019060200180831161035e57829003601f168201915b50505050509080600101805461039090610792565b80601f01602080910402602001604051908101604052809291908181526020018280546103bc90610792565b80156104095780601f106103de57610100808354040283529160200191610409565b820191906000526020600020905b8154815290600101906020018083116103ec57829003601f168201915b5050505050908060020154905083565b6000604051905090565b600080fd5b600080fd5b6000819050919050565b6104408161042d565b811461044b57600080fd5b50565b60008135905061045d81610437565b92915050565b60006020828403121561047957610478610423565b5b60006104878482850161044e565b91505092915050565b600081519050919050565b600082825260208201905092915050565b60005b838110156104ca5780820151818401526020810190506104af565b60008484015250505050565b6000601f19601f8301169050919050565b60006104f282610490565b6104fc818561049b565b935061050c8185602086016104ac565b610515816104d6565b840191505092915050565b6105298161042d565b82525050565b6000606082019050818103600083015261054981866104e7565b9050818103602083015261055d81856104e7565b905061056c6040830184610520565b949350505050565b600080fd5b600080fd5b7f4e487b7100000000000000000000000000000000000000000000000000000000600052604160045260246000fd5b6105b6826104d6565b810181811067ffffffffffffffff821117156105d5576105d461057e565b5b80604052505050565b60006105e8610419565b90506105f482826105ad565b919050565b600067ffffffffffffffff8211156106145761061361057e565b5b61061d826104d6565b9050602081019050919050565b82818337600083830152505050565b600061064c610647846105f9565b6105de565b90508281526020810184848401111561066857610667610579565b5b61067384828561062a565b509392505050565b600082601f8301126106905761068f610574565b5b81356106a0848260208601610639565b91505092915050565b6000806000606084860312156106c2576106c1610423565b5b600084013567ffffffffffffffff8111156106e0576106df610428565b5b6106ec8682870161067b565b935050602084013567ffffffffffffffff81111561070d5761070c610428565b5b6107198682870161067b565b925050604061072a8682870161044e565b9150509250925092565b7f4e487b7100000000000000000000000000000000000000000000000000000000600052603260045260246000fd5b7f4e487b7100000000000000000000000000000000000000000000000000000000600052602260045260246000fd5b600060028204905060018216806107aa57607f821691505b6020821081036107bd576107bc610763565b5b50919050565b60008190508160005260206000209050919050565b60006020601f8301049050919050565b600082821b905092915050565b6000600883026108257fffffffffffffffffffffffffffffffffffffffffffffffffffffffffffffffff826107e8565b61082f86836107e8565b95508019841693508086168417925050509392505050565b6000819050919050565b600061086c6108676108628461042d565b610847565b61042d565b9050919050565b6000819050919050565b61088683610851565b61089a61089282610873565b8484546107f5565b825550505050565b600090565b6108af6108a2565b6108ba81848461087d565b505050565b5b818110156108de576108d36000826108a7565b6001810190506108c0565b5050565b601f821115610923576108f4816107c3565b6108fd846107d8565b8101602085101561090c578190505b610920610918856107d8565b8301826108bf565b50505b505050565b600082821c905092915050565b600061094660001984600802610928565b1980831691505092915050565b600061095f8383610935565b9150826002028217905092915050565b61097882610490565b67ffffffffffffffff8111156109915761099061057e565b5b61099b8254610792565b6109a68282856108e2565b600060209050601f8311600181146109d957600084156109c7578287015190505b6109d18582610953565b865550610a39565b601f1984166109e7866107c3565b60005b82811015610a0f578489015182556001820191506020850194506020810190506109ea565b86831015610a2c5784890151610a28601f891682610935565b8355505b6001600288020188555050505b50505050505056fea26469706673582212201d9687bd71f204870bc7a5b1529d51da5113e23bf34c270821c7f21a68cdd62d64736f6c63430008130033",
  "immutableReferences": {},
  "source": "//SPDX-License-Identifier : MIT\npragma solidity ^0.8.0;\n\ncontract NFTs {\n    struct NFT {\n        string image;\n        string owner;\n        uint floorValue;\n    }\n\n    NFT[] public nfts;\n\n    function storeNFT(string memory _image, string memory _owner, uint _floorValue) public {\n        NFT memory newNFT = NFT({\n            image: _image,\n            owner: _owner,\n            floorValue: _floorValue\n        });\n\n        nfts.push(newNFT);\n    }\n\n    function retrieveNFT(uint _index) public view returns (string memory, string memory, uint) {\n        NFT memory nftToRetrieve = nfts[_index];\n        return (nftToRetrieve.image, nftToRetrieve.owner, nftToRetrieve.floorValue);\n    }\n}",
  "sourcePath": "/Users/dreemipanchal/Flutter Projects/First/collectiverse/contracts/NFTs.sol",
  "compiler": {
    "name": "solc",
    "version": "0.8.19+commit.7dd6d404.Emscripten.clang"
  },
  "schemaVersion": "3.4.14",
  "updatedAt": "2023-10-09T08:25:56.819Z",
  "networkType": "ethereum",
  "devdoc": {
    "kind": "dev",
    "methods": {},
    "version": 1
  },
  "userdoc": {
    "kind": "user",
    "methods": {},
    "version": 1
  }
}